:100000000C9434000C943E000C943E000C943E0082
:100010000C943E000C943E000C943E000C943E0068
:100020000C943E000C943E000C943E000C943E0058
:100030000C943E000C943E000C943E000C943E0048
:100040000C943E000C943E000C943E000C943E0038
:100050000C943E000C943E000C943E000C943E0028
:100060000C943E000C943E0011241FBECFEFD8E04C
:10007000DEBFCDBF0E9453000C9467000C940000BB
:100080009093C5008093C40088E18093C1008EE006
:100090008093C2000895E0ECF0E0908195FFFDCFE1
:1000A0008093C600089583E390E00E94400080E0C2
:1000B000C1E0C80F0E944B002FEF89E698E1215064
:1000C00080409040E1F700C000008C2FF1CFF89401
:0200D000FFCF60
:00000001FF
